:020000020000FC
:2000000000400074084050140800683A0000000000000000000000000000000000000000D6
:20000800DEFFED04DFC00015D8400215D8800315D8C00415D9000515D9400615D98007156A
:20001000D9C00815000B307ADA000915DA400A15DA800B15DAC00C15DB000D15DB400E15C4
:20001800DB800F15DBC01015D9401115EBFFFF04DBC012150009313A2880004C10000326FA
:200020002000022600100EC000000306DF401215E8BFFF17003DA03AD9401117DF401217EE
:20002800DFC000172801707AD8400217D8800317D8C00417D9000517D9400617D9800717F7
:20003000D9C00817DA000917DA400A17DA800B17DAC00C17DB000D17DB400E17DB800F17CA
:20003800DBC01017DEC01304EF80083ADEFFFF04DFC000150009313A00C0004401400074BF
:200040002946CB0420C4703A18C7883A100007262900011728800017103EE83A0005313A16
:20004800100004261009883A003FF30629400204003FF406DFC00017DEC00104F800283AF0
:2000500006C00074DEF0001406800074D6A60C14008000741086561400C0007418C70B14B8
:2000580010C00326100000151080010410FFFD360010F6000010FCC0003FFF06F800283A23
:20006000018000B431840A04024000B44A440804020000744206AB0401C01FC400000906D8
:2000680028800017490000371207883A190000053000003510800044288000153880012E63
:20007000280000153080003701400074294657041080200C103FF21EF800283ADEFFF60481
:200078000009883A014000440180007431806004000F883ADC000215DFC00915DD80081513
:20008000DD400715DD000615DCC00515DC800415DC400315D80000150010ED001021883AF3
:2000880000C02004008000B410840B0410C00035010000742104F5040010FF8080000326CD
:20009000010000742104FB040010FF800023883A04000074840660048809883A80000015F5
:200098008000041580000215001072808C400044008002848400050488BFF71E002B883A2A
:2000A000002D883A0029883A0027883A04800074948664049440001700800044888007261F
:2000A80088800336008000C488802D1E000018069809883A0010658000002906943FFE17D3
:2000B0009809883A001090C080A1C83A8007883A8000010E0407C83A0080320410C0200EB1
:2000B800008000C4908000150400040E0100007421050104947FFF05000003060100007474
:2000C00021050A04903FFF050010FF8000001406943FFE179809883A001090C080A1C83AA2
:2000C800008018C4140004360100007421051304900000150010FF80917FFC17943FFF0390
:2000D0000100BEF4213C20040010B200800D883A9809883A100F883A0140004400108E80E4
:2000D8009CC00044008002849480050498BFC91E0140007429465E042880001700C0FA0404
:2000E0001585C83A18809F2E0009883A2D800017001090C01000021604400AC400000106CF
:2000E80004400B440009883A0080007410865E0414000017001090C01009883A014064049F
:2000F0000010A60000C0007418C6570418C0001789C03FCC39C0201C39FFE004800B883AEC
:2000F800A80D883A0100007421051B04D8800015D8C001150010FF80008000441504983A5E
:2001000000C000B418C4100418800035008001C41500030E002B883A0029883A00007906EC
:20010800A5000044002B883A0000760600106280D1204A03040000748406920410803FCC22
:2001100020C03FCC1C07883A210000441880000500C00284D1204A0510C0032620C03FCC93
:20011800008019041880671E20803FCC1405883A100000050100007421052204800B883A64
:200120000010FF8080C00007008014C4D0204A051880022604BFFFC400000D068100004434
:200128000010B7401025883A10C03FCC0080024410C0012E04BFFFC491403FCC2940201C12
:200130000100007421052704297FE0040010FF80010000742106920401401C040010B80073
:2001380010001C26110000440010B740147FFFCC0080FA041440173691003FCC2100201C83
:20014000213FE00400BFFFC420801226014005040010B30000C0007418C6600410E1883ACB
:200148008080021788800B26008000448809883A01406404808004150010B300100D883ACA
:20015000880B883A0100007421052A04808002150010FF80010000742106920401401D84B7
:200158000010B80010002226110000440010B74010FFE7041023883A18FFFFCC0083CF04E4
:2001600010C01B3694803FCC9480201C94BFE00400BFFFC4908016268C7FFFCC8809883AC1
:2001680001400A040010B3009009883A014005041021883A0010B30000C0007418C6600494
:2001700010C5883A0100BEF4213C2004800B883A140000150010B200800D883A880B883AC8
:20017800100F883A0100007421052E040010FF800100007421051A040140007429469204B7
:200180000010FF800010618010803FCC103F871EAD400044003F1C06D0E04C17D0A04B17D9
:200188001884C03AF800283AD0A04C1700C0007418C6AB0410C7883A19000003108000444A
:2001900000C01FC4D0A04C151880012ED0204C1520803FCCF800283A21003FCC00800244CC
:20019800110030362105883A1085883A00C0007418C1A00410C5883A108000171000683AF0
:2001A000000106A8000106B4000106C0000106CC000106D8000106E4000106F0000106FC77
:2001A8000001070800010718008000B41084380400001706008000B41084340400001406CC
:2001B000008000B41084300400001106008000B410842C0400000E06008000B4108428041C
:2001B80000000B06008000B41084240400000806008000B41084200400000506008000B4ED
:2001C00010841C0400000206008000B41084180410000035F800283A008000B41084140400
:2001C80010000035F800283A00C000B418C43804008010341880003518000035F800283AB4
:2001D00029403FCC21003FCC00800244280A953A110030362105883A1085883A00C00074BE
:2001D80018C1DC0410C5883A108000171000683A00010798000107A4000107B0000107BC96
:2001E000000107C8000107D4000107E0000107EC000107F800010808008000B41084380462
:2001E80000001706008000B41084340400001406008000B41084300400001106008000B479
:2001F00010842C0400000E06008000B41084280400000B06008000B4108424040000080614
:2001F800008000B41084200400000506008000B410841C0400000206008000B4108418041C
:2002000011400035F800283A008000B41084140411400035F800283A21003FCC008002444C
:20020800110030362105883A1085883A00C0007418C2100410C5883A108000171000683A0E
:200210000001086800010874000108800001088C00010898000108A4000108B0000108BCF6
:20021800000108C8000108D8008000B41084380400001706008000B41084340400001406D9
:20022000008000B41084300400001106008000B410842C0400000E06008000B410842804AB
:2002280000000B06008000B41084240400000806008000B41084200400000506008000B47C
:2002300010841C0400000206008000B41084180411400035F800283A008000B4108414044E
:2002380011400035F800283A29403FCC31803FCC300C953A280A957A39C0203421003FCCD1
:20024000298AB03A29CAB03A0010818121003FCC00800244110011362105883A1085883A89
:2002480000C0007418C24D0410C5883A108000171000683A00010964000109700001097CD9
:200250000001098800010994000109A0000109AC000109B8000109C4000109D40005883AC9
:20025800F800283A008000B41084380400001706008000B41084340400001406008000B4BD
:200260001084300400001106008000B410842C0400000E06008000B41084280400000B068E
:20026800008000B41084240400000806008000B41084200400000506008000B410841C0499
:2002700000000206008000B41084180410800037F800283A008000B41084140410800037BA
:20027800F800283A29001B2E28001A16008000440007883A01C007C40000030619C013260E
:2002800018C0004428000416294B883A1085883A293FFA3610000D260007883A2140023636
:200288002149C83A1886B03A1004D07A280AD07A103FFA1E300002262005883AF800283A88
:200290001809883A2005883AF800283A0007883A003FF806008000440007883A003FEF0663
:20029800DEFFFE04DC000015DFC001150021883A20000C16000D883A28000E1600109E4093
:2002A0001007883A8005003A1000011E00C7C83A1805883ADFC00117DC000017DEC0020481
:2002A800F800283A0109C83A04000044000D883A283FF20E014BC83A8021003A003FEF06F5
:2002B000DEFFFF04DFC00015018000442807883A2000041628000C16DFC00017DEC0010407
:2002B80000109E410109C83A28000B16180B883A0180004400109E400085C83ADFC000170D
:2002C000DEC00104F800283A014BC83ADFC00017DEC0010400109E410147C83A003FF30609
:2002C800000D883A00109E410180004400109E4120000A260007883A2080004C1005003A50
:2002D0002008D07A1000011E1947883A294B883A203FF91E1805883AF800283A0007883A9D
:2002D8001805883AF800283A000D883A01C002840010BC41000B883A018002840010E141A4
:2002E0002080000310000C2629403FCC288006262100004420800003103FFC1E280004260E
:2002E8000005883AF800283A2005883AF800283A2005883AF800283A29403FCC283FF81E62
:2002F000003FFB06DEFFF3040080007410860C04DD00071515000017DDC00A15DC800515E9
:2002F800DC400415DFC00C15DF000B15DD800915DD400815DCC00615DC000315282F883A79
:20030000D9000115D98002153825883A2823883A8C0000078C400044A407883A18800003A7
:200308001080020C103FFA1E00800B4480805C2600800AC480805726D80000159007003AF6
:200310001800431E0080040490804126902B883AD8C000171838C03AE0004A1E04E000347F
:200318009CFFFFC49809883AA80B883A0010B2809809883AA80B883A102D883A0010B200B4
:200320001027883AA405883A114000030009883A000D883A28C0010C18000F26843FF4046E
:200328008480150E300032169900313624C02F26A80B883A0010B3001409883A0180004401
:200330008C0000078C400044A405883A1140000328C0010C183FF11E288000CC1000062640
:200338002880004C1005003A1000231E00800DC480A1C83A84BFEB1630002E16E000231EC4
:200340002007883AD880021710000426300001268DFFFFC4D900021725C000151805883A98
:20034800DFC00C17DF000B17DDC00A17DD800917DD400817DD000717DCC00617DC8005172F
:20035000DC400417DC000317DEC00D04F800283A00800C0480801F26183FBC2600800C04B9
:200358008080292604800284003FB806B43FD00E01BFFFC4003FD206008015C480A1C83A48
:20036000003FDC0604E00034003FB6060107C83A003FDC068C0000078C400044003FA60690
:200368008C000007008000448C400044D8800015003FA206D90000172005003A10000F1E2E
:2003700000E00034D90001170080088420800015003FCC068900000700801E04208002269C
:200378000080160420BFDC1E8C000047048004048C400084902B883A003F950600E00034D8
:2003800018FFFFC4003FEF0604800204902B883A003F8F060080007410860D042013883AE4
:20038800110000172805883A300F883A480B883A100D883A0010BC41000530FA00C0004409
:200390001946983A10C4703A1004C03AF800283A000D303A00BFFF843084703A1001703A64
:20039800010000742106590400C00044208000171946983A10C4B03A208000152080001736
:2003A000100170FA3001703A0005883AF800283A000D303A00BFFF843084703A1001703AF4
:2003A800010000742106590400FFFF84208000171946183A10C4703A208000152080001768
:2003B000100170FA3001703A0005883AF800283A0010ED41DEFFFE04008007C4DFC0011599
:2003B800DC00001500FFFA84114010160021303A00BFFF848084703A1001703A280490FA54
:2003C00000C0007418C6CB0410C5883A11C0011511800015300002260010E50000000106C4
:2003C8000010E9001007883A8001703A1805883ADFC00117DC000017DEC00204F800283A91
:2003D0002900051EF800283A2080001721000104288000152940010429BFFB1EF800283A04
:2003D800DEFFFF040100007421061504014000742945D4040180007431861504DFC00015FC
:2003E0000010F4000100007421000804014000742940080401800074318050040010F4002F
:2003E800010000742104F504014000742944F504018000743185D4040010F40000113C4033
:2003F000DFC00017DEC0010400113C81DEFFFF040009883ADFC0001500112840001126C0F7
:2003F800D1204E17D1604F17D1A05017DFC00017DEC0010400101DC1DEFFF804DFC0041548
:20040000DC800315DC400215DC000115D9400515D9800615D9C00715D88005042025883A7F
:20040800D880001500003D060080094494800044188002261809883A00000A0691000007B4
:20041000948000442000372620C00626008018C42080061ED880001711000017108001049F
:20041800D8800015001113C000002C0600801E0420801E1ED8800017144000171080010454
:20042000D880001588000226040007040000030601000C04003FF306843FFF04008003C431
:200428001404983A8884703A103FFB2600000B068884703A1406D83A0080024419000C04C2
:2004300010C0012E190015C421003FCC2100201C213FE004843FFF04001113C0008003C4FD
:200438001404983A803FF20E00000C0600801CC420800A1ED8800017140000171080010492
:20044000D880001500000106001113C080800007840000441009883A103FFB1E90C00007DB
:20044800183FC11EDFC00417DC800317DC400217DC000117DEC00804F800283ADEFFFD0423
:20045000DC000115D80B883A2021883A018000440100007421061304000F883ADFC00215F3
:20045800DC000005001133001009883A00BFFFC42080011E2021883A8005883ADFC0021741
:20046000DC000117DEC00304F800283A000B303A00BFFF842884703A1001703A20C00017CA
:200468002080011718800115208001172100011510C00015210000152801703AF800283AD7
:20047000DEFFFD04D0A05217DC000015D420041710800044DFC00215DC400115D0A0521522
:2004780000001B06808004038440001710000326D0A052171000011E80000405D0E052177E
:2004800080800217188011368080040310000F1E8100051780800317103EE83A1009883A1E
:200488001000031E8009883A001118C00000070680800217D0E052171105883A80800215C1
:2004900010C0022E00800044808004058821883AD0A0040480BFE31EDFC00217DC40011770
:20049800DC000017DEC00304F800283A010000B421040004000B883A0180008401C0FA04E3
:2004A00000112A41DEFFFF04DFC0001500113CC0008000441001703ADFC00017DEC0010447
:2004A800F800283A0200007442065D0440800017DEFFFE043807883ADFC00115200F883A5E
:2004B0001000011E40C00015008001C4388001352809883A300B883A018000743184BD045A
:2004B800D80000150010ED00DFC00117DEC00204F800283ADEFFFE04DFC00115DC00001500
:2004C00020000035208001370021303A00BFFF848084703A1001703A00111C008001703A61
:2004C800DFC00117DC000017DEC00204F800283ADEFFFD0439D0000CDC400115DC00001556
:2004D000DFC002153023883A380EC03A3021883A20C00017188002371080100C1000042640
:2004D800288000072940004418800135843FFFC43800021E80000D26003FF50680000B265E
:2004E0000080007410861404108000171000031E00C0007418C65F0400000206103EE83A95
:2004E8001007883A008002C4188000158C05C83ADFC00217DC400117DC000017DEC0030411
:2004F000F800283AF800283AF800283A000170FAF800283A0A0A0A0A202D2D2D61747320E2
:2004F8002D2074720D202D2D0000000A6E6E6F6372736920736E7520736563750A0D207334
:200500000000000074617473646920652D20656C7073203E4364656574736E6F524944203A
:200508000D50555F0000000A74617473646920652D20656C7073203E4364656574736E6F16
:2005100052494420574F445F000A0D4E74617473707320654364656574736E6F203E2D201A
:20051800656C64697669642000000A0D726574696F6974617825206E20782520782563251D
:200520000D7825200000000A697274737220676E64766365207325200000202525206E6DDF
:200528000A0D20780000000020736F70252078250A0D207800000000206C657625207825B8
:200530006964207878253D7600000A0D202020002020202028282020202828282020202057
:2005380020202020202020202020202010108820101010101010101010101010040404107F
:2005400004040404100404041010101041411010414141410101010101010101010101017D
:20054800010101010101010110101010424210104242424202020202020202020202020287
:2005500002020202020202021010101000000020000000000000000000000000000000001B
:20055800000000000000000000000000000000000000000000000000000000000000000083
:2005600000000000000000000000000000000000000000000000000000000000000000007B
:20056800000000000000000000000000000000000000000000000000000000000000000073
:2005700000000000000000000000000000000000000000000000000000000000000000006B
:20057800000000000000000000000000000000000000000000000000000000000000000063
:2005800000000000000000000000000000000000000000000000000000000000000000005B
:20058800000000000000000000000000000000000000000000000000000000000000000053
:200590000000000000000000000000002020200020202020282820202028282820202020C3
:2005980020202020202020202020202010108820101010101010101010101010040404101F
:2005A00004040404100404041010101041411010414141410101010101010101010101011D
:2005A800010101010101010110101010424210104242424202020202020202020202020227
:2005B0000202020202020202101010100000002000000000000000000000000000000000BB
:2005B800000000000000000000000000000000000000000000000000000000000000000023
:2005C00000000000000000000000000000000000000000000000000000000000000000001B
:2005C800000000000000000000000000000000000000000000000000000000000000000013
:2005D00000000000000000000000000000000000000000000000000000000000000000000B
:2005D800000000000000000000000000000000000000000000000000000000000000000003
:2005E0000000000000000000000000000000000000000000000000000000000000000000FB
:2005E8000000000000000000000000000000000000000000000000000000000000000000F3
:2005F0000000000000000000000000000000000000000000000000000000000000000000EB
:2005F8000000000000000000000000000000000000000000000000000000000000000000E3
:200600000000000000000000000000000000000000000000000000000000000000000000DA
:200608000000000000000000000000000000000000000000000000000000000000000000D2
:20061000000000000000000000000000000000000000000000000000000118100001181870
:20061800000118200000000000000000000000000000000000000000000000000000000089
:200620000000000000000000000000000000000000000000000000000000000000000000BA
:200628000000000000000000000000000000000000000000000000000000000000000000B2
:200630000000000000000000000000000000000000000000000000000000000000000000AA
:200638000000000000000000000000000000000000000000000000000000000000000000A2
:20064000000000000000000000000000000000000000000000000004000000000001000A8B
:20064800000000000002000A0000000000000000000000000001164D000117500001175052
:20065000FFFFFFFF0001184000011840000210F000021020000000000000000000000000A8
:20065800000000000000000000000000000000000000000000000000000000000000000082
:2006600000000000000000000000000000000000000000000000000000000000000000007A
:20066800000000000000000000000000000000000000000000000000000000000000000072
:2006700000000000000000000000000000000000000000000000000000000000000000006A
:00000001FF
